:020000040000FA
:100000000C945E000C9486000C9486000C94860080
:100010000C9486000C9486000C9486000C94860345
:100020000C9486000C9486000C9486000C94860038
:100030000C9486000C9486000C9486000C94860028
:100040000C94E2030C9486000C9486000C948600B9
:100050000C9486000C9486000C9486000C94860008
:100060000C9486000C9486000000000024002700F9
:100070002A0000000008000201000003040700003D
:10008000000000000000010204081020408001026E
:1000900004081020010204081020000000002500C0
:1000A00028002B00040404040404040402020202D5
:1000B00002020303030303030200A90611241FBE67
:1000C000CFEFD8E0DEBFCDBF11E0A0E0B1E0E4ECBF
:1000D000F0E102C005900D92A631B107D9F721E0F9
:1000E000A6E1B1E001C01D92A936B207E1F710E028
:1000F000CEE5D0E004C02197FE010E945A08CD351C
:10010000D107C9F70E942C040C9460080C940000DD
:1001100090E0FC01EE58FF4F2491FC01EA57FF4F9D
:100120003491FC01EC55FF4FE491EE23C9F02223FA
:1001300039F0233001F1A8F4213019F1223029F1EE
:10014000F0E0EE0FFF1FE656FF4FA591B4918FB779
:10015000F894EC91611126C030953E233C938FBFFB
:1001600008952730A9F02830C9F0243049F780914C
:1001700080008F7D03C0809180008F778093800006
:10018000DFCF84B58F7784BDDBCF84B58F7DFBCF88
:100190008091B0008F778093B000D2CF8091B00073
:1001A0008F7DF9CF3E2BDACFCF92DF92EF92FF9285
:1001B0000F931F93CF93DF9380915F01209165018F
:1001C0003091660160E0232B09F043C00E94880053
:1001D00060E0809163010E948800C0915D01D09130
:1001E0005E017E0181E0E81AF108CC0FDD1FC55CDD
:1001F000DE4F2DE2C22E21E0D22EF7FC68C00DE3C7
:1002000011E060E0809161010E94880088819981FD
:10021000F801268D378D82239323181619062CF4A6
:1002200061E0809163010E94880061E0809161013A
:100230000E94880060E0809163010E948800025063
:100240001109C016D106E9F6F1E0EF1AF10822977C
:10025000D4CF0E94880060E0809163010E948800F2
:10026000CDE3D1E010E000E080915D0190915E016E
:100270000817190764F58DE4E82E81E0F82E60E098
:10028000809161010E948800F701819191917F0125
:100290002881398182239323181619062CF461E0F2
:1002A000809163010E94880061E0809161010E9459
:1002B000880060E0809163010E948800FDE5EF16F0
:1002C000F1E0FF06E1F60F5F1F4F2296CDCF61E010
:1002D00080915F01DF91CF911F910F91FF90EF907F
:1002E000DF90CF900C9488009091000189130BC08F
:1002F000E8EBF0E0E4919FEF90930001E13049F0EA
:1003000028F0E23061F060E00C94880010926E00FA
:10031000FACF90916F009D7F90936F00F4CF9091F2
:1003200070009D7F9093700091E09093B000909149
:10033000B100987F94609093B1001092B300E3CF26
:10034000CF93DF9390E0FC01EA57FF4F24918C5547
:100350009F4FFC0184918823D1F090E0880F991F72
:10036000FC01E859FF4FA591B491FC01E656FF4FFF
:10037000C591D491623071F49FB7F8943C91822F6B
:10038000809583238C93E8812E2B28839FBFDF9158
:10039000CF9108958FB7F894EC912E2B2C938FBFAB
:1003A000F6CFCF92DF92EF92FF92CF936C018091C4
:1003B0000001883049F08F3F09F44FC0CF91FF9082
:1003C000EF90DF90CF900895E8EBF0E0C491C7FD87
:1003D000F5CF61E088E00E94A001CC2319F0C23083
:1003E00009F0D9C0F12CE12C68E478EE81E090E0CE
:1003F000A70196010E94B207BA01A9014150510913
:1004000061097109CC2309F406C1C23009F094C016
:100410004F3F51056105710509F00CF4BAC064E263
:1004200074EF80E090E0A70196010E94B207BA0144
:10043000A901415051096109710995E08091B1000C
:10044000887F892B8093B100C13009F4BCC0C230D1
:1004500009F4CEC0C111B2CF8AC088E080930001F8
:10046000E8EBF0E0C491CF3F09F4A8CFC13021F10F
:1004700050F0C23009F43EC0C7FDA0CF61E088E073
:100480000E94A001ACCF14BC15BC84B5826084BDB1
:1004900085B5816085BDECEAF0E0E491F0E0EE0F17
:1004A000FF1FE656FF4F85919491EEE8F0E0E4914E
:1004B000E0933001C0E08DCF109280001092810057
:1004C00080918100886080938100809181008160AB
:1004D00080938100ECEAF0E0E491F0E0EE0FFF1F82
:1004E000E656FF4F85919491EEE8F0E0E491E093B9
:1004F0002F016FCF1092B0001092B1008091B00028
:1005000082608093B0008091B10081608093B100DF
:10051000ECEAF0E0E491F0E0EE0FFF1FE656FF4F4B
:100520008591949190932E0180932D01EEE8F0E057
:10053000E491E0932C014DCF4F3F510561057105CA
:1005400041F13CF162E17AE780E090E0A701960199
:100550000E94B207BA01A90141505109610971090C
:10056000C11162C094E085B5887F892B85BD47BDE8
:100570008FEF9FEFDC018093390190933A01A093B4
:100580003B01B0933C0180916E00826080936E00CD
:1005900015CF94E053CF960150E040E060E072E167
:1005A0008AE790E00E94B207BA01A90141505109BF
:1005B00061097109C13009F047CF80918100887FBE
:1005C00081608093810050938900409388008FEF71
:1005D0009FEFDC018093350190933601A0933701A2
:1005E000B093380180916F00826080936F00E6CEF7
:1005F0004093B3008FEF9FEFDC0180933101909324
:100600003201A0933301B093340180917000826075
:1006100080937000D3CE93E04F3F51056105710583
:1006200011F00CF08FCF9FCF96E008CF3FB7F89432
:1006300080911B0190911C01A0911D01B0911E01A0
:1006400026B5A89B05C02F3F19F00196A11DB11D2D
:100650003FBFBA2FA92F982F8827BC01CD01620F69
:10066000711D811D911D42E0660F771F881F991F24
:100670004A95D1F708958F929F92AF92BF92CF92F1
:10068000DF92EF92FF924B015C010E9416036B0117
:100690007C010E9416036C197D098E099F09683E32
:1006A000734081059105A8F321E0821A9108A10801
:1006B000B10888EEC80E83E0D81EE11CF11C81143D
:1006C0009104A104B10429F7FF90EF90DF90CF903F
:1006D000BF90AF909F908F900895CF93DF93D82FC6
:1006E000C8E06D2F661F6627661F85E00E948800A0
:1006F000DD0F61E087E00E94880060E087E00E94F3
:100700008800C15071F7DF91CF9108951F920F9229
:100710000FB60F9211242F933F934F935F936F93D4
:100720007F938F939F93AF93BF93EF93FF938091AA
:10073000310190913201A0913301B0913401892BA4
:100740008A2B8B2BD1F190912C01E0912D01F0910E
:100750002E0180818927808380913101909132011F
:10076000A0913301B0913401181619061A061B0620
:100770009CF48091310190913201A0913301B091AC
:1007800034010197A109B10980933101909332019D
:10079000A0933301B0933401FF91EF91BF91AF91DA
:1007A0009F918F917F916F915F914F913F912F9189
:1007B0000F900FBE0F901F901895809100010E941E
:1007C0007401EACF1F920F920FB60F9211242F934C
:1007D0003F938F939F93AF93BF9380911701909115
:1007E0001801A0911901B0911A013091160123E06E
:1007F000230F2D3758F50196A11DB11D2093160129
:100800008093170190931801A0931901B0931A01D6
:1008100080911B0190911C01A0911D01B0911E01BE
:100820000196A11DB11D80931B0190931C01A09303
:100830001D01B0931E01BF91AF919F918F913F9188
:100840002F910F900FBE0F901F90189526E8230F41
:100850000296A11DB11DD2CF789484B5826084BD6B
:1008600084B5816084BD85B5826085BD85B58160B4
:1008700085BD80916E00816080936E001092810032
:1008800080918100826080938100809181008160ED
:1008900080938100809180008160809380008091AE
:1008A000B10084608093B1008091B000816080933A
:1008B000B00080917A00846080937A0080917A0001
:1008C000826080937A0080917A00816080937A00C0
:1008D00080917A00806880937A001092C10062E073
:1008E00089E00E94A00162E08AE00E94A00161E02C
:1008F00088E00E94A00161E082E00E94A00161E026
:1009000083E00E94A00161E084E00E94A00161E018
:1009100085E00E94A00161E086E00E94A00161E004
:1009200087E00E94A00161E080E00E94A001109297
:100930003E0110923D011092400110923F01109231
:100940004201109241011092440110924301109211
:1009500046011092450110924801109247011092F1
:100960004A011092490110924C0110924B010E94D1
:10097000D40080E480937C0080917A00806480932E
:100980007A0080917A0086FDFCCF609178007091AA
:100990007900072E000C880B990B611571058105F4
:1009A000910511F00E94A9078AE491E00E94D1010B
:1009B00066E970E080E090E00E943B0388E891E007
:1009C0000E94D10166E970E080E090E00E943B0364
:1009D00083E992E00E94D10166E970E080E090E056
:1009E0000E943B038BE092E00E94D10166E970E037
:1009F00080E090E00E943B038BE492E00E94D101F2
:100A000066E970E080E090E00E943B0380E193E0C3
:100A10000E94D10166E970E080E090E00E943B0313
:100A200088E00E94740160E086E00E94880083E80C
:100A30000E946D0361E086E00E94880060E080E033
:100A40000E94880000916701109168010E945A0776
:100A500024E030E040E050E00E94B2074B015C012E
:100A60002FEF821A920AA20AB20A3401D0E0C0E043
:100A700058E0E52EF12CCC24CA94D12C0C171D077C
:100A80000CF449C0FE0123E0F695E7952A95E1F7BD
:100A9000EE0FFF1FE35CFE4FCE01B7010E94150869
:100AA000DC01AA0FBB1FA35BBE4F8D919C912081DF
:100AB0003181822B932B918380830E94D400C615B1
:100AC000D7050CF1DE01A819B909FD0173E0F59510
:100AD000E7957A95E1F7EE0FFF1FE35CFE4FA770F5
:100AE000BB27AA0FBB1FA35BBE4F8D919C919601A4
:100AF000281B390BC90120813181822393239183E3
:100B000080830E94D40064E670E080E090E00E9460
:100B10003B032196B3CFE801C819D90958E0C52E87
:100B2000D12CEE24EA94F12C0C171D075CF1FE0188
:100B3000D7FD379623E0F595E7952A95E1F7EE0F77
:100B4000FF1FE35CFE4FCE01B6010E941508DC01D9
:100B5000AA0FBB1FA35BBE4F8D919C919701281BD1
:100B6000390BC901208131818223932391838083B2
:100B70000E94D40064E670E080E090E00E943B03B5
:100B80002196D2CF64E670E080E090E00E943B03C3
:100B900060E083E00E94880018E192E9892E94E2E7
:100BA000992E99E4A92E92E1B92E87E0E82EF12C36
:100BB000D501C401012E04C0B695A79597958795D8
:100BC0000A94D2F7C82FD0E0BE010E2C02C0759552
:100BD00067950A94E2F7617082E00E94880061E004
:100BE00084E00E94880060E084E00E94880031E098
:100BF000E31AF10848F71850183FB9F661E083E0AE
:100C00000E94880064E670E080E090E00E943B0370
:100C100010921F01109220011092210110922201C6
:100C200010922301109224011092250110922601A6
:100C300060E0809127010E948800D0901F014090C1
:100C4000200170902101C0902201B0902301A0905A
:100C500024019090250180902601D0912B01609075
:100C60002A01C091290130902801611031C02D2D39
:100C7000D61509F462C0F12CE12C022F10E0B80166
:100C80000E2C02C0759567950A94E2F76170832D6A
:100C90000E94880061E08C2F0E94880060E08C2F09
:100CA0000E9488002FEFE21AF20A38E0E316F104FE
:100CB00031F788E0580E2D2D342D472D5C2D6B2DEE
:100CC0007A2D892D982D052D0E942B086394D0CF65
:100CD00021E0621232C08FE18D0F682E660C660C27
:100CE000660C512CD51549F12D2D342D472D5C2D39
:100CF0006B2D7A2D892D982D062D0E942B0807E04B
:100D000010E0E22EF12CB701002E02C07595679518
:100D10000A94E2F76170832D0E94880061E08C2FB5
:100D20000E94880060E08C2F0E9488000150110909
:100D300050F788EF680E5394D5CF61E0809127017A
:100D40000E948800C0E0D0E02097F1F30E940000EC
:100D5000FBCFCF93DF93CFE1D1E083E0888782E0C0
:100D6000898784E08A8791E09B878C871882198223
:100D70001A821B821C821D821E821F8261E083E018
:100D80000E94A00161E08A850E94A00161E089853E
:100D90000E94A001CDE3D1E080E1FE0111928A958D
:100DA000E9F780E1E5E0F1E0ADE4B1E001900D921A
:100DB0008A95E1F719A618A661E083E00E94A001D8
:100DC00061E084E00E94A00161E082E00E94A00155
:100DD00084E090E099A388A323E030E03BA32AA31A
:100DE0009DA38CA382E090E09FA38EA38FE190E06F
:100DF0009BA78AA7198218821B821A821D821C82D5
:100E00001F821E82198618861B861A861D861C86DE
:100E10001F861E86DF91CF910C94D4008F929F92F3
:100E2000AF92BF92CF92DF92EF92FF92CF93DF9378
:100E3000EC01688179818A819B8161157105810549
:100E4000910521F464E279ED8BE597E02DE133EF34
:100E500041E050E00E94B20749015A019B01AC01F8
:100E6000A7EAB1E40E94D1076B017C01ACEEB4EFBC
:100E7000A50194010E94DF07C60ED71EE81EF91EC9
:100E8000F7FE06C081E0C81AD108E10880E8F80A38
:100E9000C882D982EA82FB82C701B6019F77DF91BF
:100EA000CF91FF90EF90DF90CF90BF90AF909F9049
:100EB0008F9008958F929F92AF92BF92CF92DF92C0
:100EC000EF92FF9260910101709102018091030104
:100ED00090910401611571058105910521F464E289
:100EE00079ED8BE597E02DE133EF41E050E00E9492
:100EF000B20749015A019B01AC01A7EAB1E40E9483
:100F0000D1076B017C01ACEEB4EFA50194010E9406
:100F1000DF07C60ED71EE81EF91EF7FE06C081E0E9
:100F2000C81AD108E10880E8F80AC0920101D092FD
:100F30000201E0920301F0920401C701B6019F771C
:100F4000FF90EF90DF90CF90BF90AF909F908F90E9
:100F500008956093010170930201809303019093BF
:100F600004010895052E97FB1EF400940E94C90702
:100F700057FD07D00E94E40707FC03D04EF40C9401
:100F8000C90750954095309521953F4F4F4F5F4F82
:100F9000089590958095709561957F4F8F4F9F4FE5
:100FA00008950E940608A59F900DB49F900DA49FE0
:100FB000800D911D11240895B7FF0C94D1070E9454
:100FC000D107821B930B0895A1E21A2EAA1BBB1B0B
:100FD000FD010DC0AA1FBB1FEE1FFF1FA217B30705
:100FE000E407F50720F0A21BB30BE40BF50B661F1B
:100FF000771F881F991F1A9469F7609570958095DF
:1010000090959B01AC01BD01CF010895A29FB00155
:10101000B39FC001A39F700D811D1124911DB29F2C
:10102000700D811D1124911D089597FB072E16F454
:10103000009407D077FD09D00E94460807FC05D030
:101040003EF4909581959F4F0895709561957F4FDF
:10105000089597FD1094002E083098F00850232F23
:10106000342F452F562F672F782F892F912DF4CFAE
:1010700015949795879577956795579547953795E3
:1010800027950A95AAF71124002D0895AA1BBB1BCA
:1010900051E107C0AA1FBB1FA617B70710F0A61B78
:1010A000B70B881F991F5A95A9F780959095BC0199
:1010B000CD010895EE0FFF1F0590F491E02D0994E6
:1010C000F894FFCFFF0100000001000200040008B7
:0A10D0000010002000400080000026
:107E0000112484B714BE81FFF0D085E080938100F7
:107E100082E08093C00088E18093C10086E0809377
:107E2000C20080E18093C4008EE0C9D0259A86E02C
:107E300020E33CEF91E0309385002093840096BBD3
:107E4000B09BFECF1D9AA8958150A9F7CC24DD24C4
:107E500088248394B5E0AB2EA1E19A2EF3E0BF2EE7
:107E6000A2D0813461F49FD0082FAFD0023811F036
:107E7000013811F484E001C083E08DD089C08234E0
:107E800011F484E103C0853419F485E0A6D080C0E4
:107E9000853579F488D0E82EFF2485D0082F10E0AE
:107EA000102F00270E291F29000F111F8ED06801E7
:107EB0006FC0863521F484E090D080E0DECF843638
:107EC00009F040C070D06FD0082F6DD080E0C81688
:107ED00080E7D80618F4F601B7BEE895C0E0D1E017
:107EE00062D089930C17E1F7F0E0CF16F0E7DF06D8
:107EF00018F0F601B7BEE89568D007B600FCFDCFD4
:107F0000A601A0E0B1E02C9130E011968C91119780
:107F100090E0982F8827822B932B1296FA010C0160
:107F200087BEE89511244E5F5F4FF1E0A038BF0790
:107F300051F7F601A7BEE89507B600FCFDCF97BE46
:107F4000E89526C08437B1F42ED02DD0F82E2BD052
:107F50003CD0F601EF2C8F010F5F1F4F84911BD097
:107F6000EA94F801C1F70894C11CD11CFA94CF0C13
:107F7000D11C0EC0853739F428D08EE10CD085E9AC
:107F80000AD08FE07ACF813511F488E018D01DD067
:107F900080E101D065CF982F8091C00085FFFCCF94
:107FA0009093C60008958091C00087FFFCCF809118
:107FB000C00084FD01C0A8958091C6000895E0E648
:107FC000F0E098E1908380830895EDDF803219F02E
:107FD00088E0F5DFFFCF84E1DECF1F93182FE3DFCA
:107FE0001150E9F7F2DF1F91089580E0E8DFEE27F6
:047FF000FF270994CA
:027FFE00040479
:00000001FF
